:020000040800F2
:1000000000500020F9180008791800087F1800082F
:10001000851800088B1800089118000800000000DF
:100020000000000000000000000000009718000819
:10003000A318000800000000AF180008BB18000853
:100040004119000841190008411900084119000828
:100050004119000841190008411900084119000818
:100060004119000841190008411900084119000808
:1000700041190008411900084119000841190008F8
:1000800041190008411900084119000841190008E8
:1000900041190008411900084119000841190008D8
:1000A00041190008411900084119000841190008C8
:1000B000C918000841190008411900084119000831
:1000C00041190008411900084119000841190008A8
:1000D0004119000841190008411900084119000898
:1000E000DD1800084119000841190008000000004F
:1000F0000000000000000000000000000000000000
:0C01000000000000000000005FF808F1A3
:10010C0010B5054C237833B9044B13B10448AFF345
:10011C0000800123237010BD54000020000000005B
:10012C000832000808B5034B1BB103490348AFF371
:10013C00008008BD000000005800002008320008B4
:10014C0080B582B000AF00237B6091E04D4A7B68A4
:10015C0052F823204C497B6841F823204B4A7B689A
:10016C0052F8232047497B6841F823207B68022BF7
:10017C001FD07B68022B26DC7B68002B03D07B68AE
:10018C00012B0BD01FE00121414801F0C9FE0346B1
:10019C0019463E4A7B6842F823101AE002213C487B
:1001AC0001F0BEFE03461946384A7B6842F823101C
:1001BC000FE01021364801F0B3FE03461946334ACE
:1001CC007B6842F82310314A7B68012142F82310E6
:1001DC0000BF2C4A7B6852F823202C497B6851F8CD
:1001EC0023309A4241D1274A7B6852F82320264972
:1001FC007B6851F823309A4237D1234A7B6852F8F6
:10020C00232024497B6851F823309A4219D01E4A86
:10021C007B6852F823201F497B6841F823201D4A34
:10022C007B6852F82330002B1FD11B4A7B6841F2AC
:10023C00883142F82310194A7B68012142F82310B7
:10024C0013E0154A7B6852F823305A1E12497B681A
:10025C0041F82320104A7B6852F82330002B04D13C
:10026C000C4A7B68012142F823107B6801337B60C8
:10027C007B68022B7FF76AAF00BF00BF0837BD4613
:10028C0080BD00BF0C0000201800002000000020E2
:10029C0000080140240000203000002070000020E5
:1002AC0080B483B000AF7860034A7B68136000BFF2
:1002BC000C37BD4680BC70478000002080B500AF75
:1002CC00B24B1B680C2B00F24D8101A252F823F0AB
:1002DC00110300082B0300085B0300088B030008C4
:1002EC00B7030008E70300081704000847040008D8
:1002FC0077040008A7040008D504000803050008CB
:10030C0031050008A24B1B68184600F07BFB9F4B85
:10031C0001221A604FF47A7001F0E6F83DE101F029
:10032C00BFF80346012B40F01F81994B1B6801332A
:10033C00974A1360964B1B68184600F063FB4FF40A
:10034C007A7001F0D1F8914B02221A600CE101F0A5
:10035C00A7F80346012B40F009818D4B1B68013334
:10036C008B4A13608A4B1B68184600F04BFB4FF40A
:10037C007A7001F0B9F8854B03221A60F6E001F0AF
:10038C008FF80346012B10D1814B1B680133804A37
:10039C0013607E4B04221A607D4B1B68184600F0DC
:1003AC0031FB4FF47A7001F09FF801F079F80346B5
:1003BC00012B40F0DD80764B1B680133744A1360CF
:1003CC00724B05221A60724B1B68184600F01AFB20
:1003DC004FF47A7001F088F8CAE001F061F8034636
:1003EC00012B40F0C7806A4B1B680133684A1360CD
:1003FC00664B06221A60664B1B68184600F002FB1F
:10040C004FF47A7001F070F8B4E001F049F803464B
:10041C00012B40F0B1805E4B1B6801335C4A1360CA
:10042C005A4B07221A605A4B1B68184600F0EAFA1E
:10043C004FF47A7001F058F89EE001F031F8034661
:10044C00012B40F09B80524B1B680133504A1360C8
:10045C004E4B08221A604E4B1B68184600F0D2FA1D
:10046C004FF47A7001F040F888E001F019F8034677
:10047C00012B40F08580464B1B680133444A1360C6
:10048C00424B09221A60424B1B68184600F0BAFA1C
:10049C004FF47A7001F028F872E001F001F803468D
:1004AC00012B6FD13A4B1B680133394A1360374B20
:1004BC000A221A60364B1B68184600F0A3FA4FF458
:1004CC007A7001F011F85DE000F0EAFF0346012BB1
:1004DC005AD12F4B1B6801332D4A13602B4B0B2227
:1004EC001A602B4B1B68184600F08CFA4FF47A708C
:1004FC0000F0FAFF48E000F0D3FF0346012B49D18E
:10050C00234B1B680133224A1360204B0C221A60C8
:10051C001F4B1B68184600F075FA4FF47A7000F008
:10052C00E3FF37E000F0BCFF0346012B34D1184B3E
:10053C001B680133164A1360154B1B68184600F0F4
:10054C0061FA134B1B680B2B07DD114B00221A6051
:10055C000F4B1B681846FFF7A3FE4FF47A7000F0A0
:10056C00C3FF19E000BF18E000BF16E000BF14E0A5
:10057C0000BF12E000BF10E000BF0EE000BF0CE0B7
:10058C0000BF0AE000BF08E000BF06E080000020CA
:10059C008400002000BF00E000BF00BF80BD00BF92
:1005AC0080B500AF474B1B68002B02D0012B1DD030
:1005BC007FE0FFF783FE444B1B68184600F08CF875
:1005CC000346012B78D1414B1B68184600F01AFAF0
:1005DC003C4B01221A6000F033FF00F041FF00F0A9
:1005EC004FFF42F2107000F099FF65E0384B1B682A
:1005FC00184600F071F80346012B18D1334B1B68D9
:10060C000133324A1360314B1B680B2B02DD2F4B2D
:10061C0000221A602D4B1B68184600F0F3F900F00D
:10062C000FFF00F01DFF42F2107000F077FF294B16
:10063C001B68184600F050F80346012B18D1234BC9
:10064C001B68013B214A1360204B1B68002B02DA0C
:10065C001E4B0B221A601D4B1B68184600F0D2F97A
:10066C0000F0EEFE00F0FCFE42F2107000F056FFBF
:10067C00154B1B68184600F02FF80346012B0AD1C6
:10068C00124B1B685A1E11490A601846FFF708FEE8
:10069C000C4B00221A6000F015FF0346012B0DD104
:1006AC000A4B1B681846FFF7FBFD064B00221A602D
:1006BC0004E000F0EFFC02E000BF00E000BF00BF70
:1006CC0080BD00BF7C000020400000208400002082
:1006DC00880000203C00002080B483B000AF78601C
:1006EC00094A7B6813441B78012B06D1064A7B68A8
:1006FC00134400221A70012300E0002318460C3723
:10070C00BD4680BC704700BFA000002080B483B001
:10071C0000AF0346FB71FB79022B01D9002307E0E4
:10072C00FB79064AD35C002B0CBF01230023DBB200
:10073C0018460C37BD4680BC704700BF8C000020AB
:10074C0080B483B000AF0346FB71FB79022B01D957
:10075C00FF2307E0FB79064AD35C012B0CBF012376
:10076C000023DBB218460C37BD4680BC704700BF77
:10077C009C00002080B582B000AF0346FB71FB7972
:10078C00634AD35C022B00F08A80022B00F3BC80FE
:10079C00002B02D0012B37D0B6E0FB791846FFF7BF
:1007AC00B5FF0346002B11D0FB79594A0121D154D6
:1007BC00FB79584A002122F81310FB79564A002184
:1007CC00D154FB79554A0121D1549AE0544B1B6802
:1007DC00012B40F09680534B1B68002B00F091804E
:1007EC00514B1B680133504A13604F4B1B681D2B38
:1007FC0005DD4D4B00221A604A4B00221A604FF463
:10080C007A7000F0BFFE7CE0474B00221A60FB7947
:10081C001846FFF77BFF0346002B0DD1FB793C4AB2
:10082C000021D154FB793D4A0021D154FB79394A3E
:10083C00002122F8131066E0FB79364A32F81330A7
:10084C00B3F57A7F09D2FB79324A32F813200132A0
:10085C0091B2304A22F8131011E0FB792E4A012193
:10086C00D154FB792D4A0121D154FB792F4A002117
:10087C0022F81310FB79274A002122F81310FB7978
:10088C001846FFF75DFF0346002B3CD0FB79204A4E
:10089C000221D154FB79204A0021D15433E0224B60
:1008AC0000221A60FB791846FFF730FF0346002B35
:1008BC000DD1FB79164A0021D154FB79174A00213E
:1008CC00D154FB79194A002122F813101CE0FB7952
:1008DC00164A32F81330C72B09D8FB79134A32F871
:1008EC001320013291B2114A22F813100CE0FB795B
:1008FC000A4A0121D154FB790C4A002122F8131029
:10090C0002E000BF00E000BF00BF0837BD4680BD5D
:10091C00B4000020A40000209C000020A0000020B7
:10092C00580100207C000020B8000020AC00002002
:10093C0090B583B000AF0023FB7151E0FA79FB79DD
:10094C002B49895C2B4AD154FA79FB792A49895C69
:10095C00274AD154FB79022B1AD0022B22DC002B14
:10096C0002D0012B0AD01DE0FC790121234801F0B3
:10097C00D7FA03461A46204B1A5514E0FC7902218B
:10098C001E4801F0CDFA03461A461B4B1A550AE0D5
:10099C00FC791021194801F0C3FA03461A46164B8C
:1009AC001A5500E000BFFB79134AD25CFB79104961
:1009BC00CB5C9A4211D1FB790D4AD25CFB790D4983
:1009CC00CB5C9A4209D1FA79FB790A49895C0C4AC9
:1009DC00D154FB791846FFF7CDFEFB790133FB713F
:1009EC00FB79022BAAD900BF00BF0C37BD4690BDC6
:1009FC009400002098000020900000200008014086
:100A0C008C00002080B582B000AF78607B680B2B27
:100A1C0000F2388301A252F823F000BF590A0008F3
:100A2C00DD0A0008610B0008E50B0008690C0008E2
:100A3C00ED0C0008790D0008FD0D0008810E000872
:100A4C00050F0008890F00080D10000800224FF454
:100A5C008061C44801F07BFA01220821C24801F0F0
:100A6C0076FA01222021C04801F071FA01221021EE
:100A7C00BD4801F06CFA01224FF48071B94801F0C5
:100A8C0066FA01224FF40071B64801F060FA0122B7
:100A9C004021B54801F05BFA01228021B14801F0F8
:100AAC0056FA01224021AF4801F051FA01222021CF
:100ABC00AC4801F04CFA01224FF40071AA4801F045
:100ACC0046FA01224FF48071A74801F040FAD9E2AE
:100ADC0001224FF48061A34801F039FA0022082169
:100AEC00A14801F034FA012220219F4801F02FFA8D
:100AFC00012210219C4801F02AFA01224FF4807146
:100B0C00984801F024FA01224FF40071954801F045
:100B1C001EFA01224021944801F019FA0122802189
:100B2C00904801F014FA012240218E4801F00FFA8E
:100B3C00012220218B4801F00AFA01224FF40071A6
:100B4C00894801F004FA01224FF48071864801F0C3
:100B5C00FEF997E201224FF48061824801F0F7F927
:100B6C0001220821804801F0F2F9002220217E4860
:100B7C0001F0EDF9012210217B4801F0E8F9012286
:100B8C004FF48071774801F0E2F901224FF40071C3
:100B9C00744801F0DCF901224021734801F0D7F9C7
:100BAC00012280216F4801F0D2F9012240216D48C9
:100BBC0001F0CDF9012220216A4801F0C8F9012287
:100BCC004FF40071684801F0C2F901224FF48071B2
:100BDC00654801F0BCF955E201224FF4806161488F
:100BEC0001F0B5F9012208215F4801F0B0F90122AA
:100BFC0020215D4801F0ABF9002210215A4801F088
:100C0C00A6F901224FF48071564801F0A0F9012297
:100C1C004FF40071534801F09AF9012240215248D7
:100C2C0001F095F9012280214E4801F090F9012242
:100C3C0040214C4801F08BF901222021494801F058
:100C4C0086F901224FF40071474801F080F9012226
:100C5C004FF48071444801F07AF913E201224FF409
:100C6C008061404801F073F9012208213E4801F0EF
:100C7C006EF9012220213C4801F069F90122102172
:100C8C00394801F064F900224FF48071354801F0C5
:100C9C005EF901224FF40071324801F058F901223B
:100CAC004021314801F053F9012280212D4801F0F7
:100CBC004EF9012240212B4801F049F90122202153
:100CCC00284801F044F901224FF40071264801F044
:100CDC003EF901224FF48071234801F038F9D1E13B
:100CEC0001224FF480611F4801F031F901220821E3
:100CFC001D4801F02CF9012220211B4801F027F995
:100D0C0001221021184801F022F901224FF48071C0
:100D1C00144801F01CF900224FF40071114801F045
:100D2C0016F901224021104801F011F9012280210D
:100D3C000C4801F00CF9012240210A4801F007F996
:100D4C0001222021074801F002F901224FF4007121
:100D5C00054801F0FCF801224FF48071024801F0C3
:100D6C00F6F88FE100080140000C014001224FF41D
:100D7C008061C64801F0EBF801220821C44801F05B
:100D8C00E6F801222021C24801F0E1F801221021ED
:100D9C00BF4801F0DCF801224FF48071BB4801F030
:100DAC00D6F801224FF40071B84801F0D0F80022B7
:100DBC004021B74801F0CBF801228021B34801F063
:100DCC00C6F801224021B14801F0C1F801222021CE
:100DDC00AE4801F0BCF801224FF40071AC4801F0B0
:100DEC00B6F801224FF48071A94801F0B0F849E13E
:100DFC0001224FF48061A54801F0A9F801220821D5
:100E0C00A34801F0A4F801222021A14801F09FF889
:100E1C00012210219E4801F09AF801224FF48071B2
:100E2C009A4801F094F801224FF40071974801F0B0
:100E3C008EF801224021964801F089F80022802189
:100E4C00924801F084F801224021904801F07FF88B
:100E5C00012220218D4801F07AF801224FF4007113
:100E6C008B4801F074F801224FF48071884801F02E
:100E7C006EF807E101224FF48061844801F067F8B5
:100E8C0001220821824801F062F8012220218048C9
:100E9C0001F05DF8012210217D4801F058F8012283
:100EAC004FF48071794801F052F801224FF400712F
:100EBC00764801F04CF801224021754801F047F8C2
:100ECC0001228021714801F042F8002240216F4834
:100EDC0001F03DF8012220216C4801F038F8012284
:100EEC004FF400716A4801F032F801224FF480711E
:100EFC00674801F02CF8C5E001224FF4806163488B
:100F0C0001F025F801220821614801F020F80122A6
:100F1C0020215F4801F01BF8012210215C4801F0F0
:100F2C0016F801224FF48071584801F010F8012294
:100F3C004FF40071554801F00AF801224021544841
:100F4C0001F005F801228021504801F000F801223F
:100F5C0040214E4800F0FBFF002220214B4800F0BE
:100F6C00F6FF01224FF40071494800F0F0FF012216
:100F7C004FF48071464800F0EAFF83E001224FF401
:100F8C008061424800F0E3FF01220821404800F054
:100F9C00DEFF012220213E4800F0D9FF0122102162
:100FAC003B4800F0D4FF01224FF48071374800F029
:100FBC00CEFF01224FF40071344800F0C8FF01222B
:100FCC004021334800F0C3FF012280212F4800F05C
:100FDC00BEFF012240212D4800F0B9FF0122202143
:100FEC002A4800F0B4FF00224FF40071284800F0AA
:100FFC00AEFF01224FF48071254800F0A8FF41E0BC
:10100C0001224FF48061214800F0A1FF0122082148
:10101C001F4800F09CFF012220211D4800F097FF83
:10102C00012210211A4800F092FF01224FF4807126
:10103C00164800F08CFF01224FF40071134800F0A9
:10104C0086FF01224021124800F081FF01228021FD
:10105C000E4800F07CFF012240210C4800F077FF85
:10106C0001222021094800F072FF01224FF4007187
:10107C00074800F06CFF00224FF48071044800F028
:10108C0066FF00BF00BF0837BD4680BD00080140A9
:10109C00000C014080B500AF01224FF48061204864
:1010AC0000F055FF012208211E4800F050FF0122DC
:1010BC0020211C4800F04BFF01221021194800F0A0
:1010CC0046FF01224FF48071154800F040FF0122C9
:1010DC004FF40071124800F03AFF012240211148F0
:1010EC0000F035FF012280210D4800F030FF012275
:1010FC0040210B4800F02BFF01222021084800F072
:10110C0026FF01224FF40071064800F020FF012257
:10111C004FF48071034800F01AFF00BF80BD00BF80
:10112C0000080140000C014080B500AF00F004FC49
:10113C0000F026F800F0DCF800F0B0F800F062F8EF
:10114C000E4801F0A9FB4FF47A7000F0CDF94FF482
:10115C007A7000F0E3F94FF47A7000F0F9F94FF47B
:10116C007A7000F00FFA4FF47A7000F025FA4FF411
:10117C007A7000F03BFAFFF713FAFCE7BC00002092
:10118C0080B590B000AF07F1180328220021184653
:10119C0002F02CF83B1D00221A605A609A60DA604B
:1011AC001A610223BB610123BB621023FB62022381
:1011BC007B630023BB634FF46013FB6307F11803DD
:1011CC00184600F0FFFE0346002B01D000F032F968
:1011DC000F237B600223BB600023FB604FF4806312
:1011EC003B6100237B613B1D0221184601F06CF929
:1011FC000346002B01D000F01DF900BF4037BD465F
:10120C0080BD000080B586B000AF07F10803002256
:10121C001A605A609A60DA603B4600221A605A6083
:10122C001D4B4FF080421A601B4B07225A601A4B21
:10123C0000229A60184B41F63F72DA60164B00227E
:10124C001A61154B00229A61134801F0D5FA034636
:10125C00002B01D000F0EEF84FF48053BB6007F187
:10126C00080319460C4801F071FC0346002B01D011
:10127C0000F0E0F800233B6000237B603B461946FE
:10128C00054801F043FE0346002B01D000F0D2F8D4
:10129C0000BF1837BD4680BDBC00002080B500AF34
:1012AC00114B124A1A60104B4FF4E1325A600E4B3C
:1012BC0000229A600C4B0022DA600B4B00221A6160
:1012CC00094B0C225A61084B00229A61064B0022F2
:1012DC00DA61054801F08AFE0346002B01D000F0CC
:1012EC00A9F800BF80BD00BF0401002000440040ED
:1012FC0080B588B000AF07F1100300221A605A6065
:10130C009A60DA603F4B9B693E4A43F0100393614D
:10131C003C4B9B6903F01003FB60FB68394B9B69EA
:10132C00384A43F020039361364B9B6903F020034A
:10133C00BB60BB68334B9B69324A43F00403936137
:10134C00304B9B6903F004037B607B682D4B9B69DE
:10135C002C4A43F0080393612A4B9B6903F0080362
:10136C003B603B6800224FF4FC61274800F0EFFD26
:10137C0000224FF45E71254800F0E9FD4FF4005354
:10138C003B61234B7B610023BB6107F110031946C2
:10139C00204800F041FC13233B6100237B610123B7
:1013AC00BB6107F110031946174800F035FC4FF4E8
:1013BC00FC633B6101237B610023BB610223FB6166
:1013CC0007F110031946104800F026FC4FF45E7329
:1013DC003B6101237B610023BB610223FB6107F1AD
:1013EC0010031946094800F017FC002200212820A0
:1013FC0000F0DBFB282000F0F4FB00BF2037BD46DB
:10140C0080BD00BF0010024000080140000C0140EC
:10141C00000011100010014080B582B000AF786060
:10142C00FFF786FA00F0FCF8FEF78AFE00BF0837DB
:10143C00BD4680BD80B400AF72B600BFFEE70000B1
:10144C0080B400AF044B00221A60044B01221A60D6
:10145C0000BFBD4680BC7047680100204C010020D5
:10146C0080B400AF044B00221A60044B01221A60B6
:10147C0000BFBD4680BC70476C01002050010020AD
:10148C0080B400AF044B00221A60044B01221A6096
:10149C0000BFBD4680BC7047700100205401002085
:1014AC0080B400AF064B1B68012B04D1044B002207
:1014BC001A60012300E000231846BD4680BC70472B
:1014CC004C01002080B400AF064B1B68012B04D1EB
:1014DC00044B00221A60012300E000231846BD468D
:1014EC0080BC70475001002080B483B000AF78609E
:1014FC00074B1B687A6892FBF3F3064A1360064BA2
:10150C0000221A6000BF0C37BD4680BC704700BF7C
:10151C0044000020680100204C01002080B483B0FE
:10152C0000AF7860074B1B687A6892FBF3F3064AAE
:10153C001360064B00221A6000BF0C37BD4680BCFE
:10154C00704700BF440000206C01002050010020B7
:10155C0080B483B000AF7860074B1B687A6892FB4D
:10156C00F3F3064A1360064B00221A6000BF0C37D7
:10157C00BD4680BC704700BF4400002070010020B5
:10158C005401002080B483B000AF7860074B1B6817
:10159C007A6892FBF3F3064A1360064B00221A603A
:1015AC0000BF0C37BD4680BC704700BF4400002014
:1015BC00740100205801002080B483B000AF786023
:1015CC00074B1B687A6892FBF3F3064A1360064BD1
:1015DC0000221A6000BF0C37BD4680BC704700BFAC
:1015EC0044000020780100205C01002080B483B00E
:1015FC0000AF7860074B1B687A6892FBF3F3064ADE
:10160C001360064B00221A6000BF0C37BD4680BC2D
:10161C00704700BF440000207C01002060010020C6
:10162C0080B400AF394B1B68002B0BDD374B1B68AC
:10163C00013B364A1360354B1B68002B02DC344BE4
:10164C0001221A60334B1B68002B0BDD314B1B68DE
:10165C00013B304A13602F4B1B68002B02DC2E4BD6
:10166C0001221A602D4B1B68002B0BDD2B4B1B68CA
:10167C00013B2A4A1360294B1B68002B02DC284BC8
:10168C0001221A60274B1B68002B0BDD254B1B68B6
:10169C00013B244A1360234B1B68002B02DC224BBA
:1016AC0001221A60214B1B68002B0BDD1F4B1B68A2
:1016BC00013B1E4A13601D4B1B68002B02DC1C4BAC
:1016CC0001221A601B4B1B68002B0BDD194B1B688E
:1016DC00013B184A1360174B1B68002B02DC164B9E
:1016EC0001221A60154B1B68002B0BDD134B1B687A
:1016FC00013B124A1360114B1B68002B02DC104B90
:10170C0001221A6000BFBD4680BC704764010020F6
:10171C0048010020680100204C0100206C010020D1
:10172C0050010020700100205401002074010020A1
:10173C0058010020780100205C0100207C01002071
:10174C006001002080B485B000AF154B9B69144A32
:10175C0043F001039361124B9B6903F00103BB60DF
:10176C00BB680F4BDB690E4A43F08053D3610C4BC3
:10177C00DB6903F080537B607B680A4B5B68FB6022
:10178C00FB6823F0E063FB60FB6843F00073FB60D5
:10179C00044AFB68536000BF1437BD4680BC7047D9
:1017AC00001002400000014080B584B000AF7860AA
:1017BC007B681B68B3F1804F13D10C4BDB690B4A70
:1017CC0043F00103D361094BDB6903F00103FB60B8
:1017DC00FB68002200211C2000F0E7F91C2000F01F
:1017EC0000FA00BF1037BD4680BD00BF001002409C
:1017FC0080B588B000AF786007F1100300221A6042
:10180C005A609A60DA607B681B68154A934223D150
:10181C00144BDB69134A43F40033D361114BDB697E
:10182C0003F40033FB60FB680E4B9B690D4A43F0DD
:10183C00040393610B4B9B6903F00403BB60BB680F
:10184C000C233B6102237B610223FB6107F1100334
:10185C001946054800F0E0F900BF2037BD4680BDB1
:10186C0000440040001002400008014080B400AF6A
:10187C00FEE780B400AFFEE780B400AFFEE780B4B3
:10188C0000AFFEE780B400AFFEE780B400AF00BF4E
:10189C00BD4680BC704780B400AF00BFBD4680BC65
:1018AC00704780B400AF00BFBD4680BC704780B5A8
:1018BC0000AF00F087F800BF80BD000080B500AF1E
:1018CC00024801F03BF800BF80BD00BFBC00002007
:1018DC0080B500AF4FF4005000F052FB00BF80BD4C
:1018EC0080B400AF00BFBD4680BC70470C480D49AA
:1018FC000D4A002302E0D458C4500433C4188C425F
:10190C00F9D30A4A0A4C002301E013600432A242C4
:10191C00FBD3FFF7E5FF01F045FCFFF705FC704733
:10192C000000002054000020503200085400002019
:10193C0084010020FEE7000080B500AF084B1B6857
:10194C00074A43F010031360032000F023F9002032
:10195C0000F008F8FFF7F6FE0023184680BD00BF24
:10196C000020024080B582B000AF7860124B1A683C
:10197C00124B1B7819464FF47A73B3FBF1F3B2FB9D
:10198C00F3F3184600F03BF90346002B01D001237A
:10199C000EE07B680F2B0AD8002279684FF0FF30DD
:1019AC0000F003F9064A7B681360002300E0012372
:1019BC0018460837BD4680BD480000205000002066
:1019CC004C00002080B400AF054B1B781A46054B29
:1019DC001B681344034A136000BFBD4680BC7047AC
:1019EC00500000208001002080B400AF024B1B6827
:1019FC001846BD4680BC70478001002080B485B07D
:101A0C0000AF78607B6803F00703FB600C4BDB686E
:101A1C00BB60BA684FF6FF031340BB60FB681A0249
:101A2C00BB68134343F0BF6343F40033BB60044A09
:101A3C00BB68D36000BF1437BD4680BC704700BF85
:101A4C0000ED00E080B400AF044BDB681B0A03F030
:101A5C0007031846BD4680BC704700BF00ED00E090
:101A6C0080B483B000AF0346FB7197F90730002BAD
:101A7C000BDBFB7903F01F02064997F907305B0972
:101A8C00012000FA02F241F8232000BF0C37BD46BA
:101A9C0080BC704700E100E080B483B000AF034627
:101AAC003960FB7197F90730002B0ADB3B68DAB21F
:101ABC000C4997F907301201D2B20B4483F800237A
:101ACC000AE03B68DAB20849FB7903F00F03043BE8
:101ADC001201D2B20B441A7600BF0C37BD4680BC43
:101AEC00704700BF00E100E000ED00E080B489B079
:101AFC0000AFF860B9607A60FB6803F00703FB6124
:101B0C00FB69C3F10703042B28BF0423BB61FB69EA
:101B1C000433062B02D9FB69033B00E000237B61F5
:101B2C004FF0FF32BB6902FA03F3DA43BB681A4089
:101B3C007B699A404FF0FF317B6901FA03F3D9437B
:101B4C007B680B40134318462437BD4680BC704756
:101B5C0080B582B000AF78607B68013BB3F1807FC9
:101B6C0001D301230FE00A4A7B68013B53600F212C
:101B7C004FF0FF30FFF790FF054B00229A60044BAB
:101B8C0007221A60002318460837BD4680BD00BFE7
:101B9C0010E000E080B582B000AF78607868FFF7A5
:101BAC002DFF00BF0837BD4680BD80B586B000AFA5
:101BBC000346B9607A60FB7300237B61FFF742FF39
:101BCC0078617A68B9687869FFF790FF024697F9EF
:101BDC000F3011461846FFF75FFF00BF1837BD46A0
:101BEC0080BD80B582B000AF0346FB7197F907301A
:101BFC001846FFF735FF00BF0837BD4680BD80B5DE
:101C0C0082B000AF78607868FFF7A2FF03461846F1
:101C1C000837BD4680BD000080B48BB000AF786043
:101C2C00396000237B6200233B6269E101227B6AFD
:101C3C0002FA03F3FB613B681B68FA691340BB6152
:101C4C00BA69FB699A4240F058813B685B689A4AD2
:101C5C0093425ED0984A934275D8984A934258D092
:101C6C00964A93426FD8964A934252D0944A9342E2
:101C7C0069D8944A93424CD0924A934263D8924A80
:101C8C00934246D0904A93425DD8122B2AD8122BFD
:101C9C0059D801A252F823F01F1D0008F91C0008A6
:101CAC000B1D00084D1D0008531D0008531D000896
:101CBC00531D0008531D0008531D0008531D000838
:101CCC00531D0008531D0008531D0008531D000828
:101CDC00531D0008531D0008531D0008011D00086A
:101CEC00151D0008794A934213D02CE03B68DB6841
:101CFC003B6229E03B68DB6804333B6224E03B68D1
:101D0C00DB6808333B621FE03B68DB680C333B62EB
:101D1C001AE03B689B68002B02D104233B6213E062
:101D2C003B689B68012B05D108233B627B68FA69F1
:101D3C001A6109E008233B627B68FA695A6103E087
:101D4C0000233B6200E000BFBB69FF2B01D87B681E
:101D5C0001E07B6804337B61BB69FF2B02D87B6A93
:101D6C009B0002E07B6A083B9B003B617B691A6825
:101D7C000F213B6901FA03F3DB431A40396A3B69D3
:101D8C0001FA03F31A437B691A603B685B6803F042
:101D9C008053002B00F0B1804D4B9B694C4A43F0B3
:101DAC00010393614A4B9B6903F00103BB60BB6861
:101DBC00484A7B6A9B08023352F82330FB607B6AEB
:101DCC0003F003039B000F2202FA03F3DB43FA68D0
:101DDC001340FB607B68404A934213D07B683F4AB8
:101DEC0093420DD07B683E4A934207D07B683D4AB4
:101DFC00934201D1032306E0042304E0022302E012
:101E0C00012300E000237A6A02F00302920093405F
:101E1C00FA681343FB602F497B6A9B080233FA680C
:101E2C0041F823203B685B6803F48033002B06D019
:101E3C002D4B1A682C49BB6913430B6006E02A4BE7
:101E4C001A68BB69DB43284913400B603B685B682D
:101E5C0003F40033002B06D0234B5A682249BB698C
:101E6C0013434B6006E0204B5A68BB69DB431E49A9
:101E7C0013404B603B685B6803F48013002B06D067
:101E8C00194B9A681849BB6913438B6006E0164BD3
:101E9C009A68BB69DB43144913408B603B685B68F1
:101EAC0003F40013002B21D00F4BDA680E49BB69E9
:101EBC001343CB6021E000BF000032100000311052
:101ECC000000221000002110000012100000111060
:101EDC00001002400000014000080140000C0140CD
:101EEC000010014000140140000401400B4BDA6863
:101EFC00BB69DB4309491340CB607B6A01337B62CE
:101F0C003B681A687B6A22FA03F3002B7FF48EAECF
:101F1C0000BF00BF2C37BD4680BC70470004014099
:101F2C0080B485B000AF78600B467B807B689A6884
:101F3C007B881340002B02D00123FB7301E00023AC
:101F4C00FB73FB7B18461437BD4680BC704780B4CE
:101F5C0083B000AF78600B467B8013467B707B7838
:101F6C00002B03D07A887B681A6103E07B881A0403
:101F7C007B681A6100BF0C37BD4680BC70470000FF
:101F8C0080B582B000AF0346FB80084B5A69FB88D2
:101F9C001340002B06D0054AFB885361FB8818467A
:101FAC0000F006F800BF0837BD4680BD00040140B4
:101FBC0080B483B000AF0346FB8000BF0C37BD4636
:101FCC0080BC704780B586B000AF78607B68002B12
:101FDC0001D1012372E27B681B6803F00103002B23
:101FEC0000F08780924B5B6803F00C03042B0CD041
:101FFC008F4B5B6803F00C03082B12D18C4B5B6886
:10200C0003F48033B3F5803F0BD1894B1B6803F489
:10201C000033002B6CD07B685B68002B68D10123EC
:10202C004CE27B685B68B3F5803F06D1804B1B6844
:10203C007F4A43F4803313602EE07B685B68002B8F
:10204C000CD17B4B1B687A4A23F480331360784B9A
:10205C001B68774A23F4802313601DE07B685B6860
:10206C00B3F5A02F0CD1724B1B68714A43F480233B
:10207C0013606F4B1B686E4A43F4803313600BE0A4
:10208C006B4B1B686A4A23F480331360684B1B68E4
:10209C00674A23F4802313607B685B68002B13D0A2
:1020AC00FFF7A2FC386108E0FFF79EFC02463B6993
:1020BC00D31A642B01D9032300E25D4B1B6803F494
:1020CC000033002BF0D014E0FFF78EFC386108E0F1
:1020DC00FFF78AFC02463B69D31A642B01D9032310
:1020EC00ECE1534B1B6803F40033002BF0D100E000
:1020FC0000BF7B681B6803F00203002B63D04C4BC2
:10210C005B6803F00C03002B0BD0494B5B6803F0AE
:10211C000C03082B1CD1464B5B6803F48033002B5B
:10212C0016D1434B1B6803F00203002B05D07B68D0
:10213C001B69012B01D00123C0E13D4B1B6823F02F
:10214C00F8027B685B69DB00394913430B603AE0AA
:10215C007B681B69002B20D0364B01221A60FFF7DD
:10216C0043FC386108E0FFF73FFC02463B69D31A99
:10217C00022B01D90323A1E12D4B1B6803F00203B1
:10218C00002BF0D02A4B1B6823F0F8027B685B69AC
:10219C00DB00274913430B6015E0264B00221A6025
:1021AC00FFF722FC386108E0FFF71EFC02463B6992
:1021BC00D31A022B01D9032380E11D4B1B6803F0BA
:1021CC000203002BF0D17B681B6803F00803002B83
:1021DC003AD07B689B69002B19D0174B01221A60EF
:1021EC00FFF702FC386108E0FFF7FEFB02463B6993
:1021FC00D31A022B01D9032360E10D4B5B6A03F068
:10220C000203002BF0D0012000F0D8FA1CE00A4B9E
:10221C0000221A60FFF7E8FB38610FE0FFF7E4FBE0
:10222C0002463B69D31A022B08D9032346E100BFAF
:10223C00001002400000424280044242924B5B6A12
:10224C0003F00203002BE9D17B681B6803F0040345
:10225C00002B00F0A6800023FB758B4BDB6903F091
:10226C008053002B0DD1884BDB69874A43F0805398
:10227C00D361854BDB6903F08053BB60BB680123E2
:10228C00FB75824B1B6803F48073002B18D17F4BBA
:10229C001B687E4A43F480731360FFF7A5FB38611B
:1022AC0008E0FFF7A1FB02463B69D31A642B01D966
:1022BC00032303E1754B1B6803F48073002BF0D0F0
:1022CC007B68DB68012B06D16F4B1B6A6E4A43F0AF
:1022DC00010313622DE07B68DB68002B0CD16A4B89
:1022EC001B6A694A23F001031362674B1B6A664A37
:1022FC0023F0040313621CE07B68DB68052B0CD114
:10230C00614B1B6A604A43F0040313625E4B1B6A09
:10231C005D4A43F0010313620BE05B4B1B6A5A4AA4
:10232C0023F001031362584B1B6A574A23F0040332
:10233C0013627B68DB68002B15D0FFF755FB386107
:10234C000AE0FFF751FB02463B69D31A41F288328F
:10235C00934201D90323B1E04B4B1B6A03F00203F8
:10236C00002BEED014E0FFF73FFB38610AE0FFF7DB
:10237C003BFB02463B69D31A41F28832934201D9A6
:10238C0003239BE0404B1B6A03F00203002BEED1AE
:10239C00FB7D012B05D13C4BDB693B4A23F0805381
:1023AC00D3617B68DB69002B00F08780364B5B6860
:1023BC0003F00C03082B61D07B68DB69022B46D140
:1023CC00334B00221A60FFF70FFB386108E0FFF770
:1023DC000BFB02463B69D31A022B01D903236DE098
:1023EC00294B1B6803F00073002BF0D17B681B6A30
:1023FC00B3F5803F08D1244B5B6823F400327B6833
:10240C009B68214913434B601F4B5B6823F4741288
:10241C007B68196A7B685B6A0B431B4913434B60EF
:10242C001B4B01221A60FFF7DFFA386108E0FFF757
:10243C00DBFA02463B69D31A022B01D903233DE098
:10244C00114B1B6803F00073002BF0D035E0104BE0
:10245C0000221A60FFF7C8FA386108E0FFF7C4FAE7
:10246C0002463B69D31A022B01D9032326E0064B03
:10247C001B6803F00073002BF0D11EE07B68DB6956
:10248C00012B07D1012319E000100240007000401D
:10249C00600042420B4B5B68FB60FB6803F48032CC
:1024AC007B681B6A9A4206D1FB6803F470127B6846
:1024BC005B6A9A4201D0012300E0002318461837CA
:1024CC00BD4680BD0010024080B584B000AF78607E
:1024DC0039607B68002B01D10123D0E06A4B1B686B
:1024EC0003F007033A689A4210D9674B1B6823F034
:1024FC00070265493B6813430B60634B1B6803F091
:10250C0007033A689A4201D00123B8E07B681B6844
:10251C0003F00203002B20D07B681B6803F004033C
:10252C00002B05D0594B5B68584A43F4E063536069
:10253C007B681B6803F00803002B05D0534B5B68CA
:10254C00524A43F460535360504B5B6823F0F002E3
:10255C007B689B684D4913434B607B681B6803F099
:10256C000103002B40D07B685B68012B07D1474BE4
:10257C001B6803F40033002B15D101237FE07B682B
:10258C005B68022B07D1414B1B6803F00073002BD7
:10259C0009D1012373E03D4B1B6803F00203002BB0
:1025AC0001D101236BE0394B5B6823F003027B689C
:1025BC005B68364913434B60FFF716FAF8600AE084
:1025CC00FFF712FA0246FB68D31A41F288329342A3
:1025DC0001D9032353E02D4B5B6803F00C027B689D
:1025EC005B689B009A42EBD1274B1B6803F00703F7
:1025FC003A689A4210D2244B1B6823F007022249F6
:10260C003B6813430B60204B1B6803F007033A68CD
:10261C009A4201D0012332E07B681B6803F004036B
:10262C00002B08D0194B5B6823F4E0627B68DB68F5
:10263C00164913434B607B681B6803F00803002B9F
:10264C0009D0124B5B6823F460527B681B69DB007A
:10265C000E4913434B6000F021F802460B4B5B68AC
:10266C001B0903F00F030A49CB5C22FA03F3094A56
:10267C001360094B1B681846FFF774F900231846C2
:10268C001037BD4680BD00BF002002400010024044
:10269C0030320008480000204C00002090B48AB072
:1026AC0000AF294B3C1D0FCB84E80F0040F20123F7
:1026BC003B800023FB610023BB6100237B62002372
:1026CC007B6100233B62214B5B68FB61FB6903F080
:1026DC000C03042B02D0082B03D02BE01C4B3B62C9
:1026EC002BE0FB699B0C03F00F0328333B4413F8DE
:1026FC00243C7B61FB6903F48033002B12D0134B19
:10270C005B685B0C03F0010328333B4413F8283C53
:10271C00BB617B690E4A03FB02F2BB69B2FBF3F3AC
:10272C007B6204E07B690B4A02FB03F37B627B6AEE
:10273C003B6202E0064B3B6200BF3B6A18462837FF
:10274C00BD4690BC704700BF20320008001002400C
:10275C0000127A0000093D0080B400AF024B1B68E8
:10276C001846BD4680BC70474800002080B500AFBD
:10277C00FFF7F2FF0246054B5B681B0A03F00703E9
:10278C000349CB5C22FA03F3184680BD00100240CB
:10279C004032000880B500AFFFF7DEFF0246054B64
:1027AC005B68DB0A03F007030349CB5C22FA03F3F3
:1027BC00184680BD001002404032000880B485B03D
:1027CC0000AF78600A4B1B680A4AA2FB03235B0A22
:1027DC007A6802FB03F3FB6000BFFB685A1EFA60C9
:1027EC00002BF9D100BF00BF1437BD4680BC704729
:1027FC0048000020D34D621080B582B000AF7860E5
:10280C007B68002B01D1012341E07B6893F83D30BC
:10281C00DBB2002B06D17B68002283F83C20786861
:10282C00FEF7C2FF7B68022283F83D207B681A68A2
:10283C007B6804331946104600F070FA7B6801225D
:10284C0083F846207B68012283F83E207B680122B6
:10285C0083F83F207B68012283F840207B680122AB
:10286C0083F841207B68012283F842207B68012297
:10287C0083F843207B68012283F844207B68012283
:10288C0083F845207B68012283F83D2000231846FD
:10289C000837BD4680BD000080B485B000AF7860BD
:1028AC007B6893F83D30DBB2012B01D001233AE079
:1028BC007B68022283F83D207B681B68DA687B68A2
:1028CC001B6842F00102DA607B681B68184A93426D
:1028DC000ED07B681B68B3F1804F09D07B681B68F6
:1028EC00144A934204D07B681B68134A934211D15B
:1028FC007B681B689B6803F00703FB60FB68062B77
:10290C0010D07B681B681A687B681B6842F0010258
:10291C001A6007E07B681B681A687B681B6842F0CA
:10292C0001021A60002318461437BD4680BC70475C
:10293C00002C0140000400400008004080B582B02B
:10294C0000AF78607B681B681B6903F00203022BE5
:10295C0022D17B681B68DB6803F00203022B1BD1BE
:10296C007B681B686FF002021A617B6801221A7780
:10297C007B681B689B6903F00303002B03D078680A
:10298C0000F0B1F905E0786800F0A4F9786800F07F
:10299C00B3F97B6800221A777B681B681B6903F00C
:1029AC000403042B22D17B681B68DB6803F004034F
:1029BC00042B1BD17B681B686FF004021A617B68C7
:1029CC0002221A777B681B689B6903F44073002B07
:1029DC0003D0786800F087F905E0786800F07AF9A0
:1029EC00786800F089F97B6800221A777B681B688D
:1029FC001B6903F00803082B22D17B681B68DB687A
:102A0C0003F00803082B1BD17B681B686FF00802CE
:102A1C001A617B6804221A777B681B68DB6903F0F8
:102A2C000303002B03D0786800F05DF905E07868AB
:102A3C0000F050F9786800F05FF97B6800221A7793
:102A4C007B681B681B6903F01003102B22D17B6879
:102A5C001B68DB6803F01003102B1BD17B681B6811
:102A6C006FF010021A617B6808221A777B681B686A
:102A7C00DB6903F44073002B03D0786800F033F962
:102A8C0005E0786800F026F9786800F035F97B6885
:102A9C0000221A777B681B681B6903F00103012B6A
:102AAC000ED17B681B68DB6803F00103012B07D197
:102ABC007B681B686FF001021A617868FEF7ACFC4A
:102ACC007B681B681B6903F08003802B0ED17B682D
:102ADC001B68DB6803F08003802B07D17B681B68C5
:102AEC006FF080021A61786800F077FA7B681B68D7
:102AFC001B6903F04003402B0ED17B681B68DB681D
:102B0C0003F04003402B07D17B681B686FF0400239
:102B1C001A61786800F0F9F87B681B681B6903F090
:102B2C002003202B0ED17B681B68DB6803F020038D
:102B3C00202B07D17B681B686FF020021A61786824
:102B4C0000F042FA00BF0837BD4680BD80B584B0A6
:102B5C0000AF786039607B6893F83C30012B01D171
:102B6C000223B3E07B68012283F83C207B680222BD
:102B7C0083F83D207B681B689B68FB60FB6823F037
:102B8C007703FB60FB6823F47F43FB607B681B6867
:102B9C00FA689A603B681B68B3F5005F3ED0B3F5EA
:102BAC00005F00F28780B3F5805F00F08580B3F59D
:102BBC00805F7FD8702B1AD0702B7BD8602B50D0B5
:102BCC00602B77D8502B3CD0502B73D8402B58D03F
:102BDC00402B6FD8302B64D0302B6BD8202B60D08F
:102BEC00202B67D8002B5CD0102B5AD062E07B686E
:102BFC0018683B6899683B685A683B68DB6800F06A
:102C0C0066F97B681B689B68FB60FB6843F0770385
:102C1C00FB607B681B68FA689A604EE07B681868FA
:102C2C003B6899683B685A683B68DB6800F04FF971
:102C3C007B681B689A687B681B6842F480429A60C8
:102C4C003BE07B6818683B6859683B68DB681A4650
:102C5C0000F0C6F87B681B685021184600F01DF97F
:102C6C002BE07B6818683B6859683B68DB681A4640
:102C7C0000F0E4F87B681B686021184600F00DF941
:102C8C001BE07B6818683B6859683B68DB681A4630
:102C9C0000F0A6F87B681B684021184600F0FDF890
:102CAC000BE07B681A683B681B681946104600F0FD
:102CBC00F4F802E000BF00E000BF7B68012283F85B
:102CCC003D207B68002283F83C20002318461037F7
:102CDC00BD4680BD80B483B000AF786000BF0C37B8
:102CEC00BD4680BC704780B483B000AF786000BF35
:102CFC000C37BD4680BC704780B483B000AF7860A1
:102D0C0000BF0C37BD4680BC704780B483B000AFA9
:102D1C00786000BF0C37BD4680BC704780B485B06E
:102D2C0000AF786039607B681B68FB607B68294A60
:102D3C0093420BD07B68B3F1804F07D07B68264A57
:102D4C00934203D07B68254A934208D1FB6823F059
:102D5C007003FB603B685B68FA681343FB607B683D
:102D6C001C4A93420BD07B68B3F1804F07D07B6831
:102D7C00194A934203D07B68184A934208D1FB68E6
:102D8C0023F44073FB603B68DB68FA681343FB6019
:102D9C00FB6823F080023B685B691343FB607B6834
:102DAC00FA681A603B689A687B68DA623B681A6852
:102DBC007B689A627B68074A934203D13B681A6925
:102DCC007B681A637B6801225A6100BF1437BD46C9
:102DDC0080BC7047002C01400004004000080040FB
:102DEC0080B487B000AFF860B9607A60FB681B6A8A
:102DFC007B61FB681B6A23F00102FB681A62FB68AB
:102E0C009B693B613B6923F0F0033B617B681B01D1
:102E1C003A6913433B617B6923F00A037B617A694E
:102E2C00BB6813437B61FB683A699A61FB687A69FA
:102E3C001A6200BF1C37BD4680BC704780B487B097
:102E4C0000AFF860B9607A60FB681B6A23F010026F
:102E5C00FB681A62FB689B697B61FB681B6A3B61C0
:102E6C007B6923F470437B617B681B037A69134392
:102E7C007B613B6923F0A0033B61BB681B013A6992
:102E8C0013433B61FB687A699A61FB683A691A6281
:102E9C0000BF1C37BD4680BC704780B485B000AF06
:102EAC00786039607B689B68FB60FB6823F070037B
:102EBC00FB603A68FB68134343F00703FB607B68D5
:102ECC00FA689A6000BF1437BD4680BC704780B466
:102EDC0087B000AFF860B9607A603B60FB689B68B4
:102EEC007B617B6923F47F437B613B681A027B68BF
:102EFC001A43BB6813437A6913437B61FB687A6995
:102F0C009A6000BF1C37BD4680BC704780B485B04A
:102F1C0000AF786039607B6893F83C30012B01D1AD
:102F2C00022346E07B68012283F83C207B68022266
:102F3C0083F83D207B681B685B68FB607B681B68C3
:102F4C009B68BB60FB6823F07003FB603B681B68ED
:102F5C00FA681343FB607B681B68FA685A607B68ED
:102F6C001B68164A93420ED07B681B68B3F1804FE6
:102F7C0009D07B681B68124A934204D07B681B689B
:102F8C00104A93420CD1BB6823F08003BB603B68B2
:102F9C005B68BA681343BB607B681B68BA689A604D
:102FAC007B68012283F83D207B68002283F83C205B
:102FBC00002318461437BD4680BC7047002C0140D6
:102FCC00000400400008004080B483B000AF78607B
:102FDC0000BF0C37BD4680BC704780B483B000AFD7
:102FEC00786000BF0C37BD4680BC704780B582B09E
:102FFC0000AF78607B68002B01D101233FE07B6838
:10300C0093F83D30DBB2002B06D17B68002283F8AD
:10301C003C207868FEF7ECFB7B68242283F83D208B
:10302C007B681B68DA687B681B6822F40052DA60E4
:10303C00786800F029F87B681B681A697B681B6844
:10304C0022F490421A617B681B685A697B681B6882
:10305C0022F02A025A617B681B68DA687B681B685D
:10306C0042F40052DA607B6800221A647B682022EA
:10307C0083F83D207B68202283F83E2000231846ED
:10308C000837BD4680BD000080B584B000AF7860C5
:10309C007B681B681B6923F440517B68DA687B688A
:1030AC001B680A431A617B689A687B681B691A4320
:1030BC007B685B691343BB607B681B68DB6823F42C
:1030CC00B05323F00C037A681268B9680B43D360D1
:1030DC007B681B685B6923F440717B689A697B6829
:1030EC001B680A435A617B681B682C4A934203D1C4
:1030FC00FFF750FBF86002E0FFF738FBF860FA6866
:10310C0013469B0013449A001A447B685B689B002F
:10311C00B2FBF3F3224AA2FB03235B091901FA6801
:10312C0013469B0013449A001A447B685B689B000F
:10313C00B2FBF3F21A4BA3FB02035B09642000FB06
:10314C0003F3D31A1B013233154AA2FB03235B0989
:10315C0003F0F0031944FA6813469B0013449A00D9
:10316C001A447B685B689B00B2FBF3F20C4BA3FB2D
:10317C0002035B09642000FB03F3D31A1B013233F7
:10318C00074AA2FB03235B0903F00F027B681B6851
:10319C000A449A6000BF1037BD4680BD003801401C
:1031AC001F85EB5170B500260C4D0D4C641BA41003
:1031BC00A64209D100F022F800260A4D0A4C641BE5
:1031CC00A410A64205D170BD55F8043B98470136B2
:1031DC00EEE755F8043B98470136F2E74832000811
:1031EC0048320008483200084C32000803460244BA
:1031FC00934200D1704703F8011BF9E7F8B500BF03
:10320C00F8BC08BC9E467047F8B500BFF8BC08BCBB
:04321C009E46704713
:1032200002030405060708090A0B0C0D0E0F101007
:103230000000000000000000010203040607080966
:0832400000000000010203047C
:043248003101000848
:04324C000D01000868
:10325000010000000000000000000000010000006C
:10326000000000000000000001000000000000005D
:10327000000000000100000000000000000000004D
:1032800064000000000000000000000001000000D9
:1032900002000000010000000024F4001000000003
:0432A0000100000029
:04000005080018F9DE
:00000001FF
